{"abi":[{"type":"constructor","inputs":[{"name":"subscriptionId","type":"uint64","internalType":"uint64"},{"name":"vrfCoordinator","type":"address","internalType":"address"},{"name":"keyHash","type":"bytes32","internalType":"bytes32"}],"stateMutability":"nonpayable"},{"type":"function","name":"rawFulfillRandomWords","inputs":[{"name":"requestId","type":"uint256","internalType":"uint256"},{"name":"randomWords","type":"uint256[]","internalType":"uint256[]"}],"outputs":[],"stateMutability":"nonpayable"},{"type":"function","name":"requestRandomWords","inputs":[],"outputs":[],"stateMutability":"nonpayable"},{"type":"function","name":"s_randomWords","inputs":[{"name":"","type":"uint256","internalType":"uint256"}],"outputs":[{"name":"","type":"uint256","internalType":"uint256"}],"stateMutability":"view"},{"type":"function","name":"s_requestId","inputs":[],"outputs":[{"name":"","type":"uint256","internalType":"uint256"}],"stateMutability":"view"},{"type":"event","name":"ReturnedRandomness","inputs":[{"name":"randomWords","type":"uint256[]","indexed":false,"internalType":"uint256[]"}],"anonymous":false},{"type":"error","name":"OnlyCoordinatorCanFulfill","inputs":[{"name":"have","type":"address","internalType":"address"},{"name":"want","type":"address","internalType":"address"}]}],"bytecode":{"object":"0x61010060405234801561001157600080fd5b5060405161059338038061059383398101604081905261003091610069565b6001600160a01b03909116608081905260a05260e052600280546001600160a01b031916331790556001600160401b031660c0526100c4565b60008060006060848603121561007e57600080fd5b83516001600160401b038116811461009557600080fd5b60208501519093506001600160a01b03811681146100b257600080fd5b80925050604084015190509250925092565b60805160a05160c05160e051610491610102600039600061014e0152600061017d015260006101bb01526000818160a7015260e901526104916000f3fe608060405234801561001057600080fd5b506004361061004c5760003560e01c80631fe543e314610051578063e0c8628914610066578063e89e106a1461006e578063f6eaffc814610089575b600080fd5b61006461005f36600461031b565b61009c565b005b610064610128565b61007760015481565b60405190815260200160405180910390f35b6100776100973660046103e5565b610235565b336001600160a01b037f0000000000000000000000000000000000000000000000000000000000000000161461011a5760405163073e64fd60e21b81523360048201526001600160a01b037f000000000000000000000000000000000000000000000000000000000000000016602482015260440160405180910390fd5b6101248282610256565b5050565b6002546001600160a01b0316331461013f57600080fd5b6040516305d3b1d360e41b81527f0000000000000000000000000000000000000000000000000000000000000000600482015267ffffffffffffffff7f0000000000000000000000000000000000000000000000000000000000000000166024820152600360448201526207a1206064820152600260848201527f00000000000000000000000000000000000000000000000000000000000000006001600160a01b031690635d3b1d309060a4016020604051808303816000875af115801561020c573d6000803e3d6000fd5b505050506040513d601f19601f8201168201806040525081019061023091906103fe565b600155565b6000818154811061024557600080fd5b600091825260209091200154905081565b80516102699060009060208401906102a5565b507fefb16d61046900da527008568620fb9f8420e2f5ed4de3bfbded5035c9362b0e816040516102999190610417565b60405180910390a15050565b8280548282559060005260206000209081019282156102e0579160200282015b828111156102e05782518255916020019190600101906102c5565b506102ec9291506102f0565b5090565b5b808211156102ec57600081556001016102f1565b634e487b7160e01b600052604160045260246000fd5b6000806040838503121561032e57600080fd5b8235915060208084013567ffffffffffffffff8082111561034e57600080fd5b818601915086601f83011261036257600080fd5b81358181111561037457610374610305565b8060051b604051601f19603f8301168101818110858211171561039957610399610305565b6040529182528482019250838101850191898311156103b757600080fd5b938501935b828510156103d5578435845293850193928501926103bc565b8096505050505050509250929050565b6000602082840312156103f757600080fd5b5035919050565b60006020828403121561041057600080fd5b5051919050565b6020808252825182820181905260009190848201906040850190845b8181101561044f57835183529284019291840191600101610433565b5090969550505050505056fea2646970667358221220d607c37e34b10c47f7448d3b6492193a8fdc3f0c5eb4f33778b094d4192cd51464736f6c63430008180033","linkReferences":{}},"methodIdentifiers":{"rawFulfillRandomWords(uint256,uint256[])":"1fe543e3","requestRandomWords()":"e0c86289","s_randomWords(uint256)":"f6eaffc8","s_requestId()":"e89e106a"},"id":26}